:100000009AC10000C9C10000C7C10000C5C10000FD
:10001000C3C10000C1C10000BFC10000BDC10000DC
:10002000BBC10000B9C10000B7C10000B5C10000EC
:10003000B3C10000F0C50000AFC10000ADC10000B9
:10004000ABC10000A9C10000A7C10000A5C100000C
:10005000A3C10000A1C100009FC100000C94A80E24
:100060009BC100000C946D0D0C94440D95C10000D3
:1000700093C1000091C100008FC100008DC100003C
:100080008BC1000089C1000087C1000085C100004C
:1000900083C1000081C100007FC100004EC4000088
:1000A0007BC1000079C1000077C1000075C100006C
:1000B00073C1000071C100006FC100006DC100007C
:1000C0006BC1000069C1000067C1000065C100008C
:1000D00063C1000061C100005FC100005DC100009C
:1000E0005BC10000BE0DC10DB00DB40DBA0DF80D11
:1000F000C50DC90DCF0DD30DD70DDD0DE10DE50DEE
:10010000F80DEB0DEF0DF30D72756E2D62726964D3
:1001100067650A000A000A0000002000230026008C
:1001200029002C002F00320000010000030106010D
:10013000090100002100240027002A002D003000C2
:10014000330001010000040107010A010000220040
:10015000250028002B002E00310034000201000091
:10016000050108010B0100000A0B02090C0D0E0825
:100170000703040100000000000000000000000070
:10018000000000000000000000000000000000006F
:10019000000012111000000000000000000000002C
:1001A000000000000000000000000000050505053B
:1001B000070508080808020202020A0A08080404DF
:1001C000040401010101010101010303030303030D
:1001D0000303040707070C0C0C0C0C0C0C0C02029C
:1001E000020206060606060606060B0B0B0B0B0B99
:1001F0000B0B010210202008081020401020408026
:1002000002010201080402010102040810204080DA
:100210008040201008040201800402018040201068
:1002200008040201080402010102040810204080B1
:10023000010204081020408000407A10F35A00A008
:10024000724E18090010A5D4E80000E8764817009F
:1002500000E40B54020000CA9A3B000000E1F505DF
:10026000000080969800000040420F000000A08629
:1002700001000000102700000000E803000000005B
:100280006400000000000A000000000001000000FF
:1002900000002C76D888DC674F0823DFC1DFAE5919
:1002A000E1B1B796E5E3E453C63AE651997696E8AC
:1002B000E6C28426EB898C9B62ED407C6FFCEFBC30
:1002C0009C9F40F2BAA56FA5F490055A2AF75C935B
:1002D0006B6CF9676DC11BFCE0E40D47FEF520E691
:1002E000B500D0ED902E0300943577050080841E74
:1002F000080000204E0A000000C80C333333330FCF
:10030000986E12831141EF8D2114893BE65516CF6B
:10031000FEE6DB18D1844B381BF77C1D901DA4BB77
:10032000E424203284725E228100C9F124ECA1E52C
:100330003D277C21502111241FBECFEFD1E2DEBF2B
:10034000CDBF00E00CBF13E0A0E0B2E0EEE1F3E5CA
:1003500000E00BBF02C007900D92A83FB107D9F78C
:1003600026E0A8EFB3E001C01D92AE3BB207E1F773
:1003700011E0CAE9D1E000E006C021970109802F11
:10038000FE010E947E22C939D10780E00807A9F743
:100390000E94B4150C947E2933CECF93DF931F9225
:1003A000CDB7DEB76983DC01ED91FC910280F3816A
:1003B000E02D41E050E0BE016F5F7F4F19950F9037
:1003C000DF91CF91089585ED8093BC008091BC00B2
:1003D00084FDFCCF1092FA03089540914904262F22
:1003E00030E0240F311D21323105DCF42091FA0375
:1003F0002430C9F4FC0180E090E0861758F4309175
:1004000049042191DC01A95DBB4FA30FB11D2C93C1
:100410000196F3CF80914904680F6093490480E00E
:10042000089581E0089582E00895089581E090E0C4
:100430003091FE032091FD03321710F480E090E02C
:1004400091958195910908958091FE039091FD0306
:10045000891730F48F5F8093FE0380E090E0089569
:100460008FEF9FEF08958091FD0390E02091FE03B0
:10047000821B91090895CF92DF92EF92FF920F9322
:100480001F93CF93DF937C01262F972F8A018091B2
:100490009204882391F0C62FD72F6E01C40ED51E6B
:1004A000CC15DD0569F06991D701ED91FC910190C2
:1004B000F081E02DC7011995F3CF642F822F8DDFD6
:1004C000C801DF91CF911F910F91FF90EF90DF90C6
:1004D000CF900895CF93DF931F92CDB7DEB7698396
:1004E000209192042223D1F02091FB03203240F08E
:1004F00021E030E0FC013383228380E090E014C0EF
:100500008091FC03E82FF0E0ED56FB4F998190833A
:100510008F5F8093FC038093FB0304C061E0CE01F6
:1005200001965BDF81E090E00F90DF91CF9108951D
:100530000895AF92BF92CF92DF92EF92FF920F9306
:100540001F93CF93DF9300D0CDB7DEB7FC01E85AFD
:10055000FF4F20812F3F11F15A019B0147E649834C
:10056000319640814A833997CC24C394D12CCE0153
:1005700003967C01850142E050E0BE016F5F7F4F32
:10058000808191810E94B1118B81882329F090E0B4
:1005900091958195910904C0C50102C08FEF9FEF2D
:1005A0000F900F900F90DF91CF911F910F91FF90BF
:1005B000EF90DF90CF90BF90AF900895CF93DF93EF
:1005C000EC018AE292E099838883CE010E94401078
:1005D000CE018E5A9F4FDF91CF910C94250C6F92D4
:1005E0007F928F929F92AF92BF92CF92DF92EF92C3
:1005F000FF920F931F93CF93DF93CDB7DEB728976A
:100600000FB6F894DEBF0FBECDBF5C018B01FC01BD
:100610001382128288EE93E0A0E0B0E08483958399
:10062000A683B7838AE292E0918380833501F0E567
:100630006F0E711CF301318320837501F2E5EF0E1B
:10064000F11C6BEF72E0C70148870E948C0C4501DA
:1006500088E5880E911C4885F4014083B801C701E4
:100660000E94C20B82E7898387E78A8381E68B83B6
:1006700086E48E83F4018081FE01E80FF11D818103
:100680008F8381E090E0F50197878687EA5AFF4FD4
:1006900000811181F7012081318182E0C82ED12CA7
:1006A000CE0104967C0142E050E0BE016A5F7F4FBC
:1006B000F301808191810E94B1118C81882321F006
:1006C0008FEFF401808307C0F501E75AFF4F8D815A
:1006D0008083F501148628960FB6F894DEBF0FBE0E
:1006E000CDBFDF91CF911F910F91FF90EF90DF90E1
:1006F000CF90BF90AF909F908F907F906F90089514
:10070000CF93DF93EC018D819E81DC01ED91FC9113
:100710000480F581E02D19951816190654F48D8181
:100720009E81DC01ED91FC910680F781E02D199509
:10073000EACFDF91CF9108958F929F92AF92BF92AF
:10074000CF92DF92EF92FF92CF93DF93EC016B0198
:100750000E949C0E4B015C01E12CF12C8D819E814D
:10076000DC01ED91FC910680F781E02D199597FF52
:100770000FC00E949C0EDC01CB0188199909AA09BF
:10078000BB098C159D05AE05BF0540F38FEF9FEFAC
:10079000DF91CF91FF90EF90DF90CF90BF90AF901F
:1007A0009F908F900895FC01238134812627022E8B
:1007B0002295207F2025032E322F22952F7002268E
:1007C000269532272327220F220F220F202534833C
:1007D00023830895CF92DF92EF92FF920F931F939E
:1007E0006801790100E010E020E030E00E94B111E2
:1007F0001F910F91FF90EF90DF90CF900895CF93CE
:10080000FC01C48121E020939204C093B3041092B0
:10081000FC031092FB038385682B87E695E05ADE84
:100820008091FB03813208F046C09091FA03911148
:10083000FCCF92E09093FA0391E09093F9039FEF3D
:10084000909391041092900480938F04A3E9B4E0F4
:100850002FE634E0F9019E2F921B981718F49D9112
:100860009193F9CF10926E0480916E04CC0FC82B37
:10087000C0936E048091F803813061F41092F80304
:1008800080916E048093BB008091BC0083FDF8CF03
:1008900085EC01C085EE8093BC008091FA03823024
:1008A000E1F3809191048F3F31F080919104803287
:1008B00011F0809191041092FC031092FB031092AE
:1008C0009204CF9108950F931F93CF938C01C62F5D
:1008D00096DF6C2F6460C80192DF6C2F6B7FC801BC
:1008E0008EDF83EC90E00197F1F7CF911F910F918C
:1008F0000895FF920F931F93CF93DF931F92CDB76D
:10090000DEB78C01F62E962F907F692F642BC801DD
:100910004983D9DF80E1F89EB00111244981642B1D
:10092000C8010F90DF91CF911F910F91FF90CBCF16
:1009300041E0DFDF81E090E008951F920F920FB653
:100940000F9211240BB60F922F933F934F935F9307
:100950006F937F938F939F93AF93BF93EF93FF9387
:100960008091B900887F803609F49CC068F5883290
:1009700009F45BC090F4803109F454C038F4882342
:1009800009F4F6C0883009F44DC0F5C0883109F487
:100990004CC0803209F45DC0EEC0803409F468C0F8
:1009A00048F4803309F455C0883309F0E4C08093DB
:1009B0009104D8C0803509F44FC0883509F45DC072
:1009C000883409F0D8C0D6C0883909F4C7C0A8F463
:1009D000883709F467C038F4883609F463C0803773
:1009E00009F460C0C8C0883809F4B8C0803909F477
:1009F0005FC0803809F0BFC05BC0803B09F486C08F
:100A000038F4803A09F466C0883A09F47FC0B3C06C
:100A1000803C09F4A7C0883C09F4A4C0883B09F4D1
:100A20008AC0A9C080916E0410C0909190048091FA
:100A30008F04981770F5E091900481E08E0F8093F9
:100A40009004F0E0E159FB4F80818093BB0085EC7E
:100A500086C0809391048EC0E091900481E08E0F57
:100A6000809390048091BB00F0E0E159FB4F8083BC
:100A70009091900480918F046EC0E091900481E089
:100A80008E0F809390048091BB00F0E0E159FB4F02
:100A900080838091F90381116DC081E08093F80318
:100AA00084EA61C083E08093FA0310926D04CFCF93
:100AB00080916D04803208F051C0E0916D0481E0B6
:100AC0008E0F80936D048091BB00F0E0E35BFB4FE1
:100AD0008083BDCF85EC8093BC001092FA03809197
:100AE0006D04803230F4E0916D04F0E0E35BFB4F85
:100AF000108260916D0470E0E0914B04F0914C0421
:100B00008DE494E0199510926D0435C084E08093D3
:100B1000FA0310924A0410924904E0914704F091BC
:100B20004804199580914904811105C081E08093A2
:100B3000490410922704E0914A0481E08E0F8093CB
:100B40004A04F0E0E95DFB4F80818093BB00909107
:100B50004A0480914904981708F479CF85E8809376
:100B6000BC0009C085EC8093BC001092FA0303C05E
:100B70001092910428DCFF91EF91BF91AF919F916A
:100B80008F917F916F915F914F913F912F910F9036
:100B90000BBE0F900FBE0F901F901895CF92DF9253
:100BA000EF92FF921F93CF93DF93EC011F81662397
:100BB00011F0812F01C080E0288530E0220F331F23
:100BC000285E3E4FA0E0B0E0F90145915491FA0152
:100BD00090819123AD0160E070E098130FC01196F1
:100BE000CD84DE84EF84F8884C155D056E057F05A5
:100BF00058F33FEF2FEF8FEF9FEF03C03A2F252FD2
:100C0000CB01632F722FDF91CF911F91FF90EF9057
:100C1000DF90CF9008951F920F920FB60F9211247C
:100C20000BB60F922F933F934F935F936F937F93E6
:100C30008F939F93AF93BF93CF93DF93EF93FF93E4
:100C40002091740530E0F901EA59FE4F8491F901D1
:100C5000EE50FE4FD491F901E455FE4FC491CC23E0
:100C600099F0811170D7EC2FF0E0EE0FFF1FE85ED6
:100C7000FE4FA591B491EC91ED2331E020E009F411
:100C800030E0832F922F02C080E090E02091780521
:100C9000309179052F5F3F4F309379052093780588
:100CA00020917705253618F026E0209373052091D2
:100CB00073052430D9F128F4223069F02330D9F0BB
:100CC00060C0253009F453C0263009F05AC021E035
:100CD0002093440653C0009709F053C02091780533
:100CE000309179052436310508F443C0109244064A
:100CF000109277051DC08130910509F042C0E09146
:100D0000770521E02E0F20937705F0E020917805FC
:100D100030917905EE0FFF1FED58FA4F308727838A
:100D2000109279051092780524E029C00097B9F453
:100D3000E091770521E02E0F20937705F0E02091D8
:100D4000780530917905EE0FFF1FED58FA4F308787
:100D50002783109279051092780523E010C0209126
:100D60007805309179052536310558F007C0009790
:100D700041F4109279051092780503C025E0209384
:100D80007305209176052223B1F0892B51F48091CF
:100D90007505882321F08091750561E009C02F9ABF
:100DA0000AC080917505882329F08091750560E05F
:100DB00020D701C02F98FF91EF91DF91CF91BF9184
:100DC000AF919F918F917F916F915F914F913F91E3
:100DD0002F910F900BBE0F900FBE0F901F90189584
:100DE0002F923F924F925F926F927F928F929F923B
:100DF000AF92BF92CF92DF92EF92FF920F931F9329
:100E0000CF93DF93CDB7DEB7C458D1090FB6F894AE
:100E1000DEBF0FBECDBF7C016BEF72E07DD51C82C3
:100E20001B8288EE93E0A0E0B0E08D839E83AF83C9
:100E3000B8878AE192E09A8389838CE595E09E8762
:100E40008D871A8A1B8A1C8A8E010B5A1F4F67EDE9
:100E500073E0C80161D5B801CE0101966C010E9412
:100E6000BD0FC801F2D46CED73E0C80155D5B801CF
:100E7000C6010E94AA0FC801E8D4C601DED75601F8
:100E80001801C5010E94DF0F8B89882309F46FC107
:100E90006BEF72E0CE0187589F4F3ED5C5010E948F
:100EA000571497FD0CC0D1018C9311961C9241E010
:100EB00050E0B801CE0187589F4F23D4EFCF69EDA2
:100EC00072E0C80129D5B801CE0187589F4FFFD3E2
:100ED0003C01C801BAD469ED72E0C8011DD5EF9696
:100EE0004EAD5FADEF97F80184819581481B590B9A
:100EF000B801CE0187589F4F9CD36C01C801A5D47F
:100F000063EE73E0C80108D5B801CE0187589F4F42
:100F1000DED34C01C80199D463EE73E0C801FCD460
:100F2000EF964EAD5FADEF97D80114968D919C91E1
:100F30001597481B590BB801CE0187589F4F79D39D
:100F40002C01C80182D4930140E050E0BE016758F3
:100F50007F4FCE018D589F4FF3D4A3014F5F5F4F5A
:100F60009601BE0167587F4FCE0183599F4FE8D449
:100F70003601B3E06B0E711CA6014F5F5F4F93010A
:100F8000BE0167587F4FCE0189599F4FD9D4E4E005
:100F9000CE0ED11C9401A601BE0167587F4FCE0131
:100FA0008F599F4FCDD4A4014F5F5F4F9201BE0177
:100FB00067587F4FCE01855A9F4FC2D4FFEF4F1A1B
:100FC0005F0AEF962EAD3FADEF97A201BE016758C5
:100FD0007F4FC801B5D4CE018D589F4F1FD370935A
:100FE000050260930402CE0183599F4F17D370937B
:100FF000260460932504CE0189599F4F0FD3709327
:10100000020460930104CE018F599F4F07D3709360
:1010100000046093FF03CE01855A9F4FFFD2709367
:10102000040460930304809123049091240490931A
:10103000030280930202C801F1D2709324046093EA
:101040002304930140E050E0BE0167587F4FCE017A
:1010500081589F4F75D4BE0161587F4F8FE896E04D
:10106000BBD3CE0181589F4FF0D39201A601BE01A0
:1010700067587F4FCE0181589F4F62D4BE0161589F
:101080007F4F89E896E0A8D3CE0181589F4FDDD3EA
:10109000BE0167587F4FC7018AD3D7016D907C90FE
:1010A00011976114710409F447C01496CD90DC9037
:1010B0001597C114D10409F43FC023014201BFEFC9
:1010C0004B1A5B0AF4018081082E000C990B0E94D8
:1010D0004A28892B99F7F1E0CF1AD108C60CD71C02
:1010E000D6018C91082E000C990B0E944A28892B5E
:1010F00089F4BFEFCB1ADB0AA60148195909F70199
:10110000558344836814790460F4B401C3010E94D8
:10111000342507C0C814D90460F381E0C81AD10887
:10112000DFCFD701ED91FC91119714968D919C9191
:101130001597E80FF91F1082C80187D3CE01855A91
:101140009F4F83D3CE018F599F4F7FD3CE018959B3
:101150009F4F7BD3CE0183599F4F77D3CE018D58BC
:101160009F4F73D3CE0187589F4F6FD38ACE8AE1AA
:1011700092E09A838983C50135D6C701CC57DF4FEA
:101180000FB6F894DEBF0FBECDBFDF91CF911F9198
:101190000F91FF90EF90DF90CF90BF90AF909F9016
:1011A0008F907F906F905F904F903F902F90089519
:1011B000CF92DF92EF92FF920F931F93CF93DF9323
:1011C0006C017A018B01C0E0D0E0CE15DF0589F01B
:1011D000D8016D918D01D601ED91FC910190F081C6
:1011E000E02DC6011995892B11F47E0102C02196CC
:1011F000ECCFC701DF91CF911F910F91FF90EF903E
:10120000DF90CF900895FC01918D828D981761F049
:10121000828DDF01A80FB11D5D968C91928D9F5F2D
:101220009F73928F90E008958FEF9FEF0895FC01D8
:10123000918D828D981731F0828DE80FF11D858D8B
:1012400090E008958FEF9FEF0895FC01918D228D1E
:10125000892F90E0805C9F4F821B91098F739927A3
:1012600008958FEB94E0F1DF21E0892B09F420E071
:10127000822F0895FC01848DDF01A80FB11DA35AB0
:10128000BF4F2C91848D90E001968F739927848FA6
:10129000A689B7892C93A089B1898C9180648C939D
:1012A000938D848D981306C00288F389E02D808188
:1012B0008F7D80830895EF92FF920F931F93CF93BA
:1012C000DF93EC0181E0888F9B8D8C8D981305C096
:1012D000E889F989808185FD23C0F62E0B8D10E009
:1012E0000F5F1F4F0F731127E02E8C8DE8120BC07C
:1012F0000FB607FCFACFE889F989808185FFF5CF21
:10130000CE01B8DFF2CF8B8DFE01E80FF11DE35A5D
:10131000FF4FF0820B8FEA89FB898081806207C0D2
:10132000EE89FF896083E889F98980818064808300
:1013300081E090E0DF91CF911F910F91FF90EF90AE
:101340000895CF93DF93EC01888D8823C1F0EA895B
:10135000FB89808185FD05C0A889B9898C9186FDAE
:101360000EC00FB607FCF5CF808185FFF2CFA889AC
:10137000B9898C9185FFEDCFCE017CDFE8CFDF917D
:10138000CF91089580E090E0892B19F06ADF8111F8
:1013900025C080E090E0892B41F080E090E0892B2F
:1013A00021F00E94000081111CC080E090E0892B98
:1013B00041F080E090E0892B21F00E940000811133
:1013C00013C080E090E0892BA1F080E090E0892BB1
:1013D00081F00E94000081110AC008950E9400005F
:1013E000D8CF0E940000E1CF0E940000EACF0C9409
:1013F000000008953FB7F8948091B9049091BA0421
:10140000A091BB04B091BC0426B5A89B05C02F3F9A
:1014100019F00196A11DB11D3FBFBA2FA92F982F1A
:101420008827820F911DA11DB11DBC01CD0142E095
:10143000660F771F881F991F4A95D1F70895089561
:1014400008950E943025CF93DF93EC018881998124
:10145000009711F00E94B423198218821D821C8209
:101460001B821A82DF91CF9108950F931F93CF9320
:10147000DF93EC0188819981009729F02A813B81D3
:101480002617370788F48B016F5F7F4F0E944C242B
:10149000009761F0998388831B830A832C813D81A7
:1014A000232B11F4FC01108281E001C080E0DF9168
:1014B000CF911F910F910895EF92FF920F931F9379
:1014C000CF93DF93EC017B018A01BA01CEDF81115A
:1014D00003C0CE01B8DF07C01D830C83B70188812C
:1014E00099810E943D25CE01DF91CF911F910F91EF
:1014F000FF90EF9008950F931F93CF93DF9300D049
:10150000CDB7DEB729E42983FC0126852A836B83C6
:1015100000E010E020E030E043E050E0BE016F5F0B
:101520007F4F8485958556D981E090E00F900F908C
:101530000F90DF91CF911F910F910895EF92FF923D
:101540000F931F93CF93DF9300D0CDB7DEB7FC018D
:101550002485211127C07C01158687E489838FE3C8
:101560008B83E75AFF4F80818A839701205F3F4F2B
:10157000399700E410E043E050E0BE016F5F7F4F19
:101580008081918127D99C01215031092E3F3F4F05
:1015900018F0F701148606C0F70195859F5F9587BF
:1015A000815084870F900F900F90DF91CF911F9102
:1015B0000F91FF90EF900895CF93DF93EC01BEDF82
:1015C0008C8590E0DF91CF910895CF93DF93EC016C
:1015D000B5DF8C85882331F08D85C80FD11D8889B2
:1015E00090E002C08FEF9FEFDF91CF910895CF93EE
:1015F000DF93EC01A3DF8C85882359F081508C8721
:101600008D8591E0980F9D87C80FD11D888990E046
:1016100002C08FEF9FEFDF91CF910895FC01808191
:101620009181009711F00C947D2560E070E0CB0172
:101630000895AF92BF92CF92DF92EF92FF920F93F5
:101640001F93CF93DF937B018A01FB014481558176
:101650004115510561F1FC012481358121153105C8
:1016600031F12417350718F10217130718F0890113
:1016700001501109FC01A080B180C501DFEFCFEF5F
:101680006501C00ED11EC816D906A0F0F701608111
:1016900071810E944425009769F09C012A193B0939
:1016A0000217130710F0D22FC32F0196ECCF8FEF44
:1016B0009FEF02C08D2F9C2FDF91CF911F910F9133
:1016C000FF90EF90DF90CF90BF90AF900895CF93B1
:1016D000DF93FC0124813581232B71F0FB01DC01B8
:1016E000CD91DC9160817181CE010E9444250097EB
:1016F00019F08C1B9D0B02C08FEF9FEFDF91CF91F4
:101700000895EF92FF920F931F93CF93DF93FC0105
:10171000248135816115710511F480E018C04115EF
:101720005105A1F07B01EC018A01020F131FB801E2
:101730009CDE882391F3288139818C819D81B701BA
:10174000820F931F0E943D251D830C8381E0DF9152
:10175000CF911F910F91FF90EF9008956115710542
:1017600049F0FB0101900020E9F73197AF01461BDA
:10177000570BC7CF80E00895FB01448155816081FC
:101780007181BFCFCF93DF93EC016115710551F0EB
:10179000FB0101900020E9F73197AF01461B570B81
:1017A0008BDE01C050DECE01DF91CF910895CF9343
:1017B000DF93EC01FB018617970751F0608171817F
:1017C0006115710521F04481558176DE01C03BDE53
:1017D000CE01DF91CF9108950F931F93CF93DF93A5
:1017E0008C01EB01FC01808191810097B1F068814F
:1017F00079816115710579F0428153812C813D8198
:101800004217530740F00E943D258C819D81F801CD
:101810009583848313C00E94B42388819981F80141
:10182000918380838A819B81938382838C819D8134
:1018300095838483198218821B821A821D821C82DE
:10184000DF91CF911F910F910895FC0180819181CB
:101850000C94B423EF92FF920F931F93CF93DF93D7
:10186000CDB7DEB7A1970FB6F894DEBF0FBECDBFE0
:101870007C01CB01BA01F70111821082138212821E
:101880001582148242E0420F8E010F5F1F4F0E94AB
:101890005E25BC01C70176DFA1960FB6F894DEBFC6
:1018A0000FBECDBFDF91CF911F910F91FF90EF90B1
:1018B00008950F931F93CF93DF93CDB7DEB7629751
:1018C0000FB6F894DEBF0FBECDBF8C01CB01F8017F
:1018D00011821082138212821582148250E0BE019E
:1018E0006F5F7F4F0E94A325BE016F5F7F4FC801CE
:1018F00049DF62960FB6F894DEBF0FBECDBFDF9111
:10190000CF911F910F910895FC01118210821382D3
:101910001282158214824BCFFC0111821082138235
:101920001282158214826115710549F0FB01019044
:101930000020E9F73197AF01461B570BBDCD089545
:10194000BF92CF92DF92EF92FF920F931F93CF93AC
:10195000DF937C016B018A01E9012417350720F42C
:10196000812F8901C42FD82F6BEF72E0C701D4DF1C
:10197000D60114968D919C91159708171907C8F4F4
:101980008C179D0708F4EC01D601ED91FC9111979D
:10199000EC0FFD1FB08010824D915C91BA01600F79
:1019A000711FC701EFDED601ED91FC91EC0FFD1F19
:1019B000B082C701DF91CF911F910F91FF90EF90FF
:1019C000DF90CF90BF900895DC01ED91FC910190E4
:1019D000F081E02D1994DC01ED91FC91DB0114966E
:1019E0004D915C9115976D917C910280F381E02D72
:1019F0001994EF92FF920F931F93CF93DF938C0173
:101A00007B01C0E0D0E0F701EC0FFD1F649166237D
:101A100061F0D801ED91FC910190F081E02DC801B9
:101A20001995892B11F02196EECFCE01DF91CF9140
:101A30001F910F91FF90EF9008956115710579F056
:101A4000FB0101900020E9F73197AF01461B570BCE
:101A5000DC01ED91FC910280F381E02D199480E08E
:101A600090E008950F931F93CF93DF93EC01B3DFC2
:101A70008C0169EF72E0CE01E0DF800F911FDF91F2
:101A8000CF911F910F9108951F920F920FB60F9251
:101A900011240BB60F922F933F934F935F936F9345
:101AA0007F938F939F93AF93BF93EF93FF938FEBAE
:101AB00094E0E0DBFF91EF91BF91AF919F918F9107
:101AC0007F916F915F914F913F912F910F900BBE3E
:101AD0000F900FBE0F901F9018951F920F920FB688
:101AE0000F9211240BB60F922F938F939F93EF9326
:101AF000FF93E091CF04F091D0048081E091D50470
:101B0000F091D60482FD12C090818091D8048F5F3D
:101B10008F732091D904821751F0E091D804F0E03E
:101B2000E154FB4F958F8093D80401C08081FF91D1
:101B3000EF919F918F912F910F900BBE0F900FBE41
:101B40000F901F90189590E0FC013197E231F1055C
:101B500008F04EC08827EE58FF4F8F4F0C947E221E
:101B6000809180008F7703C0809180008F7D80936B
:101B70008000089580918000877FF9CF84B58F77AA
:101B800002C084B58F7D84BD08958091B0008F77A9
:101B900003C08091B0008F7D8093B0000895809144
:101BA00090008F7707C0809190008F7D03C0809157
:101BB0009000877F8093900008958091A0008F7798
:101BC00007C08091A0008F7D03C08091A000877F17
:101BD0008093A0000895809120018F7707C08091A5
:101BE00020018F7D03C080912001877F8093200199
:101BF00008951F93CF93DF93282F30E0F901EA591E
:101C0000FE4F8491F901EE50FE4FD491F901E45555
:101C1000FE4FC491CC23C1F0162F811194DFEC2F1D
:101C2000F0E0EE0FFF1FE45BFE4FA591B4918FB77C
:101C3000F894111105C09C91ED2FE095E92302C0A5
:101C4000EC91ED2BEC938FBFDF91CF911F91089515
:101C5000CF93DF9390E0FC01EE50FE4F2491FC0106
:101C6000E455FE4F8491882361F190E0880F991F1D
:101C7000FC01EE5CFE4FC591D491FC01E45BFE4F8C
:101C8000A591B491611109C09FB7F89488812095FE
:101C900082238883EC912E230BC0623061F49FB7BE
:101CA000F8943881822F809583238883EC912E2BA2
:101CB0002C939FBF06C08FB7F894E8812E2B288302
:101CC0008FBFDF91CF9108958F929F92AF92BF9275
:101CD000CF92DF92EF92FF926B017C018BDB4B0185
:101CE0005C01C114D104E104F104E9F083DBDC01FF
:101CF000CB0188199909AA09BB09883E9340A1051F
:101D0000B10578F321E0C21AD108E108F10888EEA4
:101D1000880E83E0981EA11CB11CC114D104E104FB
:101D2000F10421F7DECFFF90EF90DF90CF90BF90CE
:101D3000AF909F908F9008952FB7F8946091B5045D
:101D40007091B6048091B7049091B8042FBF0895A4
:101D50001F920F920FB60F9211242F933F938F93E0
:101D60009F93AF93BF938091B5049091B604A091D7
:101D7000B704B091B8043091B40423E0230F2D3799
:101D800020F40196A11DB11D05C026E8230F02967F
:101D9000A11DB11D2093B4048093B5049093B604A3
:101DA000A093B704B093B8048091B9049091BA0499
:101DB000A091BB04B091BC040196A11DB11D8093FC
:101DC000B9049093BA04A093BB04B093BC04BF9130
:101DD000AF919F918F913F912F910F900FBE0F90D8
:101DE0001F901895EF92FF920F931F93CF93DF935D
:101DF0001F921F92CDB7DEB77C01FC018189882339
:101E000089F087E7898386858A8300E010E020E0F7
:101E100030E042E050E0BE016F5F7F4F84859585E2
:101E20000E94EA03F701118A0F900F90DF91CF9182
:101E30001F910F91FF90EF900895AF92BF92CF92B4
:101E4000DF92EF92FF920F931F93CF93DF9300D017
:101E50001F92CDB7DEB75C0182E58B83D5011F965B
:101E6000ED91FC915097048115812081318142E0F0
:101E7000C42ED12CFE0131967F0141E050E0BE011D
:101E80006D5F7F4F1C968D919C911D976AD28A81C0
:101E9000D5011E968C931E971F960D911C915097FD
:101EA0000115110529F0C801D0DCC8010E94B42336
:101EB000F501108A17868981811102C081E0818B2A
:101EC00032E7F32EF982D5011E968C911E978A83F4
:101ED00001E010E09E012D5F3F4F42E050E0BE0167
:101EE0006F5F7F4F1C968D919C911D970E94EA0316
:101EF0008B81813031F464E670E080E090E0E4DED4
:101F0000E1CF87E58B83F50186858C8302E010E0C5
:101F10009E012F5F3F4F42E050E0BE016D5F7F4F5B
:101F2000848595850E94EA03898190E0982F88270F
:101F30002A81820F911D0F900F900F900F90DF91CB
:101F4000CF911F910F91FF90EF90DF90CF90BF90B6
:101F5000AF9008950F931F93CF93DF93EC018B0104
:101F600065EE73E08F859889F9DBB8018F859889D4
:101F7000DF91CF911F910F91FFCBEF92FF920F93C3
:101F80001F93CF93DF931F921F92CDB7DEB77C01D3
:101F900069837A8327DF86E090E00E941F238C010B
:101FA00069817A81B1DCF701108B07870F900F9060
:101FB000DF91CF911F910F91FF90EF900895EF92D5
:101FC000FF920F931F93CF93DF9300D0CDB7DEB76F
:101FD000FC012289211118C07C01138A8FE48983B6
:101FE00080E48B8386858A839F012C5E3F4F00E4CB
:101FF00010E043E050E0BE016F5F7F4F8485958520
:102000000E94EA03F701828B0F900F900F90DF91EF
:10201000CF911F910F91FF90EF900895CF93DF9391
:10202000EC01CDDF8A89882331F08B89C80FD11D5F
:102030008C8990E002C08FEF9FEFDF91CF910895E0
:10204000CF93DF93EC01BBDF8A89882359F081505D
:102050008A8B8B8991E0980F9B8BC80FD11D8C893F
:1020600090E002C08FEF9FEFDF91CF910895CF9363
:10207000DF93EC01A4DF8A8990E0DF91CF9108958E
:10208000EF92FF920F931F93CF93DF9300D0CDB7C2
:10209000DEB77C0128E5E20EF11CF70120812F3F1D
:1020A000B9F026E62983319620812A83399701E009
:1020B00010E09E012D5F3F4F42E050E0BE016F5F98
:1020C0007F4F808191810E94EA038FEFF701808327
:1020D0000F900F900F90DF91CF911F910F91FF9074
:1020E000EF9008958F929F92AF92BF92CF92DF921E
:1020F000EF92FF920F931F93CF93DF93CDB7DEB78D
:10210000C054D1400FB6F894DEBF0FBECDBF8C01D6
:1021100013DEF801C184D284E384F4849B01AC0112
:102120002C193D094E095F0969017A0130EDC3168A
:1021300037E0D306E104F10410F48189BCC0F80152
:102140006187728783879487148213821282118237
:10215000108262E085817CDD61E070E080E090E0EB
:10216000B3DD61E0F801858173DD60E0F801858110
:1021700040DDF80186818551823028F48BE291E1BF
:102180000197F1F705C064E170E080E090E09CDD2C
:1021900062E0F80185815CDDF801828990E082309F
:1021A000910538F0880F991F880F991F059701979F
:1021B000F1F7F89460E0C8010E94CE056F3F7F4FB1
:1021C0008F4F9F4F21F4F801118A789445C061E048
:1021D000C8010E94CE056F3F7F4F8F4F9F4F99F3ED
:1021E0009E012F5F3F4F79015E013FEBA31A3EEF47
:1021F000B30A670160E0C8010E94CE05F601608362
:1022000071838283938361E0C8010E94CE05F60149
:102210006483758386839783F8E0CF0ED11CCA143C
:10222000DB0441F7789420E030E0F70140815181F0
:102230006281738184809580A680B7804F3FFFEFD5
:102240005F076F077F0731F08FEF88169806A806A3
:10225000B80621F4F801118A80E02DC0F90183E06D
:10226000F595E7958A95E1F7E00FF11F8081880FDA
:10227000481559056A057B0508F4816080832F5F46
:102280003F4FF8E0EF0EF11C2832310571F6F801EE
:10229000248130E04081818190E0840F911D428152
:1022A000840F911D4381840F911D992728173907A9
:1022B00089F681E0818BC05CDE4F0FB6F894DEBFFB
:1022C0000FBECDBFDF91CF911F910F91FF90EF9087
:1022D000DF90CF90BF90AF909F908F9008958F9296
:1022E0009F92AF92BF920F931F93CF93DF93CDB77F
:1022F000DEB7A1970FB6F894DEBF0FBECDBF19A20F
:10230000423008F44AE08E010F5D1F4F842E912C5D
:10231000A12CB12CA50194010E945C22E62FB901E9
:10232000CA0101501109EA3014F4E05D01C0E95C12
:10233000D801EC93232B242B252B61F7B80187EAD6
:1023400096E07BDBA1960FB6F894DEBF0FBECDBF43
:10235000DF91CF911F910F91BF90AF909F908F9081
:1023600008952F923F924F925F926F927F928F9239
:102370009F92AF92BF92CF92DF92EF92FF920F9314
:102380001F93CF93DF93CDB7DEB72B970FB6F8949B
:10239000DEBF0FBECDBF9B878A875B011901FD821F
:1023A000EC823A01600E711E872C7B82912C4424B2
:1023B0004A94542C9B01240F351F3F832E83910197
:1023C000200F311F39872887EA85FB85808598167D
:1023D00008F035C1AA85BB8514965C924E9213977E
:1023E00015968D919C911697DC01ED91FC910190D1
:1023F000F081E02D6FEF19956FEF8A859B850E9424
:10240000D303EA85FB8585819681DC01ED91FC9102
:102410000190F081E02DAA85BB856C911995EA8524
:10242000FB856081CF010E94D303AA85BB851596E9
:102430008D919C911697DC01ED91FC910190F081BA
:10244000E02D682D19956B818A859B850E94D303A9
:10245000EA85FB8585819681DC01ED91FC910190F7
:10246000F081E02D662D1995662D8A859B850E9449
:10247000D30375012E813F81E216F306B1F0EA85A0
:10248000FB85858196818701DC01ED91FC910190AE
:10249000F081E02DD7016D917D011995F8016081E2
:1024A0008A859B850E94D303E5CF7101AA85BB85F0
:1024B00015968D919C91169728853985E216F3061D
:1024C00091F08701DC01ED91FC910190F081E02D0C
:1024D000D7016D917D011995F80160818A859B85F1
:1024E0000E94D303E3CFDC01ED91FC91AA85BB856B
:1024F00014966C910190F081E02D1995EA85FB8589
:1025000085819681DC01ED91FC910190F081E02DB7
:10251000AA85BB8513966C91199564E670E08A854F
:102520009B850E949C038F3F910509F07DC0EA8541
:10253000FB85548243826FEFCF010E94D30365E095
:1025400070E08A859B850E949C03AA85BB856C915F
:10255000262F30E08217930709F066C0CD010E9454
:10256000D3036AE070E08A859B850E949C037C010E
:1025700097FD5AC0682F8A859B850E94D3036AE025
:1025800070E08A859B850E949C038C0197FD4CC05E
:10259000682F8A859B850E94D303EA821982E9818C
:1025A000FA810E0F1F1FE12CF12C65E070E08A8587
:1025B0009B85E016F106A9F0EC14FD0491F00E9451
:1025C0009C0397FD0AC0EC81FD81EE0DFF1D808309
:1025D000682F8A859B850E94D303FFEFEF1AFF0ABD
:1025E000E4CF0E949C037C0197FD1EC065E070E073
:1025F0008A859B850E949C0397FD16C0FE2CEE24C5
:102600008E0D9F1DAA85BB8513962D913C91149725
:102610002817390749F48C918F5F8C93C801C01635
:10262000D10678F4C6010DC0939464E670E080E0B2
:1026300090E04ADB8A859B850E948003C5CE8FEFA0
:102640009FEF2B960FB6F894DEBF0FBECDBFDF9184
:10265000CF911F910F91FF90EF90DF90CF90BF909F
:10266000AF909F908F907F906F905F904F903F9032
:102670002F900895EF92FF920F931F93CF93DF93C4
:10268000CDB7DEB727970FB6F894DEBF0FBECDBF2C
:102690007C018B0167EE73E0CE0101963DD9B70155
:1026A000CE0101965BD865EE73E0CE01019656D857
:1026B000B801CE01019652D84D815E8169817A813F
:1026C00001E010E09E01295F3F4F8CE595E00E94FC
:1026D000EA03CE010196B9D827960FB6F894DEBF6B
:1026E0000FBECDBFDF91CF911F910F91FF90EF9063
:1026F0000895FB0160817181FC0180819181BACFD5
:10270000CF92DF92EF92FF921F93CF93DF93EC0172
:10271000E9DC882309F475C08E818C3009F445C04A
:1027200018F48B30C1F06DC08551823008F069C05B
:102730001A81612F6F7770E0762F66278B81682B67
:1027400080E090E00E9466282DEC3CEC4CEC5DE3D0
:102750000E94C72847C06A8170E080E090E00E9434
:1027600066286B017C01CB81C7FF0AC09B01AC01CD
:1027700060E070E080E89FEB0E9486226B017C01A4
:102780008C2F8F70682F70E080E090E00E946828A6
:102790002DEC3CEC4CEC5DE30E94C7289B01AC01A6
:1027A000C701B6010E9487221FC01A81612F70E005
:1027B00080E090E00E9466286B017C018B818F7025
:1027C000682F70E080E090E00E9468282DEC3CECDF
:1027D0004CEC5DE30E94C7289B01AC01C701B60128
:1027E0000E94872217FD905826E636E646EE5FE304
:1027F0000E94C72820E030E040E052E40E94872297
:1028000004C060E070E080EC9FE7DF91CF911F9102
:10281000FF90EF90DF90CF900895CF92DF92EF92EC
:10282000FF92CF93DF93EC015DDC8823A9F18E81C9
:102830008B3090F18D30A0F08551823068F5688141
:1028400070E0762F66278981682B80E090E00E94F7
:1028500066282DEC3CEC4CEC5DE30E94C72820C0C0
:10286000688170E080E090E00E9468286B017C0144
:102870008981682F70E080E090E00E9468282DEC4C
:102880003CEC4CEC5DE30E94C7289B01AC01C70106
:10289000B6010E94872204C060E070E080EC9FE7F0
:1028A000DF91CF91FF90EF90DF90CF9008950F933D
:1028B0001F93CF93DF93EC013FDA688779878A878C
:1028C0009B87CE01BDDB97FF16C036DA08851985D8
:1028D0002A853B85DC01CB01801B910BA20BB30B3E
:1028E0000C811D812E813F8180179107A207B307BC
:1028F00040F38FEF9FEFDF91CF911F910F910895DC
:1029000040E061E087EA96E00E9479048BE39FE172
:102910000197F1F70895BC0187EA96E08EC8CF933E
:10292000DF93CDB7DEB728970FB6F894DEBF0FBEA2
:10293000CDBF28E0E6E3F2E0DE01119601900D92B2
:102940002A95E1F72091AF06261710F46FEF620F7A
:10295000FE013196E60FF11DE60FF11D9081682F03
:10296000690F606840E087EA96E028960FB6F89411
:10297000DEBF0FBECDBFDF91CF910C947904CF9213
:10298000DF92EF92FF92CF93DF936C01990FEE08E5
:10299000FF08F7FE17C06DE287EA96E015D8EC0154
:1029A00066277727CB016C197D098E099F094AE0BC
:1029B00096DC8C0F9D1FDF91CF91FF90EF90DF9001
:1029C000CF9008954AE0C701B601DF91CF91FF9003
:1029D000EF90DF90CF9083CC8F929F92AF92BF9277
:1029E000CF92DF92EF92FF92CF93DF936B017C0146
:1029F0009B01AC010E941B23882319F069EE73E050
:102A000027C046015701E894B7F82FEF3FEF4FE793
:102A10005FE7C501B4010E941B2381110DC02FEF98
:102A20003FEF4FE75FE7C501B4010E946228181627
:102A30001CF46DEE73E00CC02FEF3FEF4FE75FE447
:102A4000C701B6010E941723181684F461EF73E0E2
:102A500087EA96E0DF91CF91FF90EF90DF90CF90E3
:102A6000BF90AF909F908F900C941D0D2FEF3FEF74
:102A70004FE75FECC701B6010E94622887FDE6CFF1
:102A800020E030E0A901C701B6010E94622887FF5B
:102A90000BC06DE287EA96E00E94E40CEC01F7FAC5
:102AA000F094F7F8F09402C0C0E0D0E02AE037EDEF
:102AB00043EA5BE3C701B6010E9487224B015C0138
:102AC0000E94EB226B017C010E9466289B01AC01F5
:102AD000C501B4010E9486224B015C014AE0C70196
:102AE000B601FDDBC80FD91F65EF73E087EA96E0FA
:102AF0000E941D0DC80FD91F20E030E040E251E4D4
:102B0000C501B4010E94C7284B015C010E94EB2261
:102B10006B01E12CF12C4AE0C701B601E0DBC80FE4
:102B2000D91FC701B6010E9466289B01AC01C501EF
:102B3000B4010E94862220E030E040E251E40E948D
:102B4000C7280E94EB2280E090E04AE0C8DB8C0FAF
:102B50009D1FDF91CF91FF90EF90DF90CF90BF90BE
:102B6000AF909F908F900895CF93DF93CDB7DEB74E
:102B7000C657D1090FB6F894DEBF0FBECDBF78940B
:102B800084B5826084BD84B5816084BD85B5826072
:102B900085BD85B5816085BD80916E008160809323
:102BA0006E0010928100809181008260809381008C
:102BB000809181008160809381008091800081609C
:102BC000809380008091B10084608093B1008091F7
:102BD000B00081608093B00080919100826080930A
:102BE000910080919100816080939100809190008C
:102BF0008160809390008091A10082608093A10009
:102C00008091A10081608093A1008091A0008160EB
:102C10008093A000809121018260809321018091A6
:102C20002101816080932101809120018160809346
:102C3000200180917A00846080937A0080917A00EC
:102C4000826080937A0080917A00816080937A001C
:102C500080917A00806880937A001092C10061E0D0
:102C600085E30E94280E61E085E30E94F90D61E092
:102C700083E30E94280E61E083E30E94F90D61E086
:102C800081E30E94280E61E081E30E94F90D61E07A
:102C90008FE20E94280E61E08FE20E94F90D61E050
:102CA0008DE20E94280E61E08DE20E94F90D61E044
:102CB0008BE20E94280E61E08BE20E94F90D61E038
:102CC00089E20E94280E61E089E20E94F90D61E02C
:102CD00087E20E94280E61E087E20E94F90DE091F0
:102CE0006505F0916605A089B18982E08C93A48581
:102CF000B5851C92A685B78587E08C93108EA48934
:102D0000B58986E08C93A289B3898C9180618C937C
:102D1000A289B3898C9188608C93A289B3898C91A4
:102D200080688C930288F389E02D80818F7D808379
:102D3000809163058111CCC081E0809363058CE5AF
:102D400095E00E94800368EE73E080E090E00E94CE
:102D5000640E8091610590916205DC01ED91FC911A
:102D60000480F581E02D19951816190644F325E025
:102D7000F22EEE24E39432E3D32EECE0F2E0DE0117
:102D8000A55ABF4F8F2D01900D928A95E1F7E092E1
:102D9000640500E010E020E030E045E050E0BE01D6
:102DA000655A7F4F8CE595E00E94EA0363E08091CD
:102DB0006105909162050E94E40C6AEF70E080E08A
:102DC00090E00E94640E66E171E08091610590914F
:102DD00062050E94F90C6AEF70E080E090E00E94CA
:102DE000640E64E171E080916105909162050E943A
:102DF000F90C64EF71E080E090E00E94640E68E0FE
:102E000071E080916105909162050E94F90C64EF78
:102E100071E080E090E00E94640E8CE595E00E94F5
:102E20008003E1E1F2E0DE0111968F2D01900D9219
:102E30008A95E1F7D092640504E010E09E012B59D9
:102E40003F4F45E050E0BE016F5F7F4F8CE595E05E
:102E50000E94EA038F3FBFEF9B0739F468EE73E0EF
:102E600080E090E00E94640E88CFA6962FADA697D2
:102E70002111FFCF049719F5A7962FADA79730E042
:102E80002053310984E6829FA001839F500D1124B5
:102E9000A8962FADA89730E0205331096AE0629FD1
:102EA000C001639F900D1124840F951FA9962FAD2B
:102EB000A99730E020533109820F931F02C084E6A6
:102EC00090E090935E0580935D0582E380936405B6
:102ED00062E080915D060E94280E0E949C0EDC013B
:102EE000CB01805D9740A109B10980936106909361
:102EF0006206A0936306B093640617E310936A0614
:102F000062E080914A060E94280E0E949C0EDC011D
:102F1000CB01805D9740A109B10980934E06909343
:102F20004F06A0935006B093510610935706109287
:102F3000FE031092FD031092FC031092FB0310920B
:102F4000FA0381E08093F9031092F80361E084E1D1
:102F50000E94F90D61E085E10E94F90D8091B900B0
:102F60008E7F8093B9008091B9008D7F8093B900E6
:102F700088E48093B80085E48093BC001092AC068E
:102F80008091B106823018F098E09093AC0680935F
:102F9000AF0662E370E080E090E00E94640E609112
:102FA000B20687EA96E00E94FF0368EE73E080E0D5
:102FB00090E00E94640E60E387EA96E00E9463045A
:102FC0000BE416E4C8010197F1F760E387EA96E0A5
:102FD0000E946304C8010197F1F760E387EA96E075
:102FE0000E94630483E592E00197F1F760E287EACB
:102FF00096E00E9463046091AC06606240E087EA5C
:1030000096E00E94790484E08093AD0640E06CE095
:1030100087EA96E00E94790473DC12E01093AE0612
:1030200040E066E087EA96E00E94790440E062E0D2
:1030300087EA96E00E9479048BE39FE10197F1F71C
:1030400088E08093B20660E087EA96E00E94FF0382
:1030500060E080E064DC8EE792E05DDC61E080E0CF
:103060005EDC88E892E057DC60ED77E080E090E09D
:103070000E94640E45DCCE0101960E94F006CE014E
:1030800001960E94250C68EE73E080E090E00E94BB
:10309000640EF8941093B0001093B10084E680930E
:1030A000B3001092B20010937000789410937305DF
:1030B000109277058091740560E00E94280E68EEFA
:1030C00073E080E090E00E94640E65E972E089E9B7
:1030D00092E0D0DA9AE1292E92E0392ECE010196C3
:1030E0000E94F006CE0101960E94250C09DC60E0EA
:1030F00080E015DC8FE992E00EDC61E080E00FDC1F
:1031000080910002909101023ADC60ED77E080E06E
:1031100090E00E94640E60E080E001DC8EE792E0C7
:10312000FADB61E080E0FBDB88E892E0F4DB809191
:103130000304909104040197209100023091010250
:10314000281739070CF046C7C0901104D09012041C
:10315000E0901304F0901404A7019601C701B60192
:103160000E941B23811142C720E030E040EA52E474
:10317000C701B6010E94172318160CF42EC720E0D1
:1031800030E048E452E4C701B6010E94622887FF9C
:103190002DC761E087E20E94F90D81E090E09093F5
:1031A00022048093210461E089E20E94F90D1092CB
:1031B000200410921F0461E08BE20E94F90D10922E
:1031C0001E0410921D0488E596E027DB2B013C01CC
:1031D00060930D0470930E0480930F049093100479
:1031E00064EF71E080E090E00E94640E88E596E074
:1031F00087DA4B015C016093110470931204809391
:1032000013049093140464EF71E080E090E00E9456
:10321000640E85E496E001DB609305047093060478
:10322000809307049093080464EF71E080E090E0DD
:103230000E94640E85E496E063DA6B017C01609382
:10324000090470930A0480930B0490930C0464EFB8
:1032500071E080E090E00E94640EA5019401C50138
:10326000B4010E941B238111DDC7A7019601C7018C
:10327000B6010E941B238111D5C720E030E04CE944
:1032800052E4C501B4010E94172318160CF02AC796
:1032900020E030E04CE952E4C701B6010E94172358
:1032A00018160CF431C720E030E040E752E4C501C5
:1032B000B4010E94622887FDE9C720E030E04CE9B4
:1032C00052E4C701B6010E94622887FF30C761E05F
:1032D00083E30E94F90D109216041092150461E028
:1032E00081E30E94F90D109218041092170460E017
:1032F0008DE20E94F90D81E090E090931C04809390
:103300001B0461E08FE20E94F90D10921A041092E2
:10331000190465E976E0CE018F589F4F0E94840C16
:103320006FEA72E0CE0185599F4F0E948C0CAD96DA
:10333000EEACFFACAD971C821B8288EE93E0A0E060
:10334000B0E08D839E83AF83B8873A8229820CE5F3
:1033500015E01E870D871A8A1B8A1C8A6BED72E0A6
:10336000CE01855A9F4F0E948C0CBE01655A7F4F3B
:10337000CE0101960E94BD0FCE01855A9F4F0E943B
:10338000250CB701CE01855A9F4F0E948C0CBE01BF
:10339000655A7F4FCE0101960E94AA0FCE01855A31
:1033A0009F4F0E94250CCE0101960E941D0F7C01AB
:1033B0003A822982CE0101960E94F20EEF2809F48A
:1033C00057C0AD96EEACFFACAD971C821B8288EE69
:1033D00093E0A0E0B0E08D839E83AF83B8873A820C
:1033E00029821E870D871A8A1B8A1C8A6EED72E05D
:1033F000CE01855A9F4F0E948C0CBE01655A7F4FAB
:10340000CE0101960E94BD0FCE01855A9F4F0E94AA
:10341000250C64EE72E0CE01855A9F4F0E948C0C01
:10342000BE01655A7F4FCE0101960E94AA0FCE01C0
:10343000855A9F4F0E94250CB701CE01855A9F4F98
:103440000E948C0CBE01655A7F4FCE0101960E94EE
:10345000AA0FCE01855A9F4F0E94250CCE010196DE
:103460000E941D0F3A822982CE0101960E94F20E1F
:10347000BE016F587F4FCE01855A9F4F0E94840C2A
:10348000BE0165597F4FCE018B599F4F0E94840C1E
:10349000BE01655A7F4F8DE796E00E94BC0B67EE38
:1034A00072E08DE796E00E94AE0B409111045091BE
:1034B0001204609113047091140422E0CE0101966D
:1034C0000E942A0CBE016F5F7F4F8DE796E00E943D
:1034D000BC0BCE0101960E94250C67EE72E08DE7D1
:1034E00096E00E94AE0B40910D0450910E04609145
:1034F0000F047091100422E0CE0101960E942A0C64
:10350000BE016F5F7F4F8DE796E00E94BC0BCE013E
:1035100001960E94250C67EE72E08DE796E00E940E
:10352000AE0B4091090450910A0460910B04709114
:103530000C0422E0CE0101960E942A0CBE016F5FAE
:103540007F4F8DE796E00E94BC0BCE0101960E9452
:10355000250C67EE72E08DE796E00E94AE0B40917D
:10356000050450910604609107047091080422E05C
:10357000CE0101960E942A0CBE016F5F7F4F8DE73E
:1035800096E00E94BC0BCE0101960E94250C69EECC
:1035900072E0CE018B599F4F0E94AE0BA7966EAD85
:1035A0007FADA7972CE535E042E0CE0101960E9461
:1035B000EF026A968FAD6A978F3FB1F06DE776E0C4
:1035C000CE0101960E94EB0C67EE72E0CE010196EF
:1035D0000E941D0D69EF72E0CE0101960E941D0D43
:1035E000CE0101960E944010CE0101960E94DE029B
:1035F000CE018B599F4F0E94250CCE01855A9F4FBB
:103600000E94250C64EF71E080E090E00E94640E5F
:10361000BE016F587F4FCE01855A9F4F0E94840C88
:10362000BE0165597F4FCE018B599F4F0E94840C7C
:10363000BE01655A7F4F87E796E00E94BC0B67EE9C
:1036400072E087E796E00E94AE0B609121047091D2
:1036500022044AE0CE0101960E94590CBE016F5F20
:103660007F4F87E796E00E94BC0BCE0101960E9437
:10367000250C67EE72E087E796E00E94AE0B6CEFD8
:1036800072E0CE018B599F4F0E94AE0BA7966EAD94
:103690007FADA7972CE535E042E0CE0101960E9470
:1036A000EF026A968FAD6A978F3F51F067E776E039
:1036B000CE0101960E94320DCE0101960E9440106B
:1036C000CE0101960E94DE02CE018B599F4F0E94CF
:1036D000250CCE01855A9F4F0E94250C64EF71E0A6
:1036E00080E090E00E94640EBE016F587F4FCE01D3
:1036F000855A9F4F0E94840CBE0165597F4FCE01B1
:103700008B599F4F0E94840CBE01655A7F4F81E701
:1037100096E00E94BC0B67EE72E081E796E00E94A3
:10372000AE0B60911F04709120044AE0CE01019617
:103730000E94590CBE016F5F7F4F81E796E00E94A7
:10374000BC0BCE0101960E94250C67EE72E081E76A
:1037500096E00E94AE0B60911D0470911E044AE039
:10376000CE0101960E94590CBE016F5F7F4F81E729
:1037700096E00E94BC0BCE0101960E94250C68E0E9
:1037800073E0CE018B599F4F0E94AE0BA7966EAD92
:103790007FADA7972CE535E042E0CE0101960E946F
:1037A000EF026A968FAD6A978F3F51F061E776E03E
:1037B000CE0101960E94320DCE0101960E9440106A
:1037C000CE0101960E94DE02CE018B599F4F0E94CE
:1037D000250CCE01855A9F4F0E94250C64EF71E0A5
:1037E00080E090E00E94640EBE016F587F4FCE01D2
:1037F000855A9F4F0E94840CBE0165597F4FCE01B0
:103800008B599F4F0E94840CBE01655A7F4F8BE6F7
:1038100096E00E94BC0B67EE72E08BE696E00E9499
:10382000AE0B60911B0470911C044AE0CE0101961E
:103830000E94590CBE016F5F7F4F8BE696E00E949D
:10384000BC0BCE0101960E94250C67EE72E08BE660
:1038500096E00E94AE0B6091190470911A044AE040
:10386000CE0101960E94590CBE016F5F7F4F8BE61F
:1038700096E00E94BC0BCE0101960E94250C67EEDB
:1038800072E08BE696E00E94AE0B60911704709197
:1038900018044AE0CE0101960E94590CBE016F5FE8
:1038A0007F4F8BE696E00E94BC0BCE0101960E94F2
:1038B000250C67EE72E08BE696E00E94AE0B6091FD
:1038C0001504709116044AE0CE0101960E94590C2D
:1038D000BE016F5F7F4F8BE696E00E94BC0BCE016E
:1038E00001960E94250C65E173E0CE018B599F4F34
:1038F0000E94AE0BA7966EAD7FADA7972CE535E085
:1039000042E0CE0101960E94EF026A968FAD6A975F
:103910008F3F51F06BE676E0CE0101960E94320DAA
:10392000CE0101960E944010CE0101960E94DE0257
:10393000CE018B599F4F0E94250CCE01855A9F4F77
:103940000E94250C64EF71E080E090E00E94640E1C
:10395000CE0185599F4F0E94250CCE018F589F4F55
:103960000E94250C65E976E0CE0101960E94840C48
:103970006FE972E0CE01855A9F4F0E948C0CBE0108
:103980006F5F7F4FCE01855A9F4F0E947913CE0102
:10399000855A9F4F0E94250CCE0101960E94250C4E
:1039A0004AE060E070E0CE0101960E94590C62E2AC
:1039B00073E0CE01855A9F4F0E948C0CBE016F5F51
:1039C0007F4FCE01855A9F4F0E947913CE01855AB1
:1039D0009F4F0E94250CCE0101960E94250C6091FC
:1039E0000104709102044AE0CE0101960E94590C34
:1039F0006DE273E0CE01855A9F4F0E948C0CBE0190
:103A00006F5F7F4FCE01855A9F4F0E947913CE0181
:103A1000855A9F4F0E94250CCE0101960E94250CCD
:103A20004091110450911204609113047091140498
:103A300022E0CE0101960E942A0C62E373E0CE01DF
:103A4000855A9F4F0E948C0CBE016F5F7F4FCE0145
:103A5000855A9F4F0E947913CE01855A9F4F0E942D
:103A6000250CCE0101960E94250C40910D04509129
:103A70000E0460910F047091100422E0CE010196B3
:103A80000E942A0C6DE373E0CE01855A9F4F0E947D
:103A90008C0CBE016F5F7F4FCE01855A9F4F0E94F5
:103AA0007913CE01855A9F4F0E94250CCE010196B5
:103AB0000E94250C4091090450910A0460910B0466
:103AC00070910C0422E0CE0101960E942A0C6CE455
:103AD00073E0CE01855A9F4F0E948C0CBE016F5F30
:103AE0007F4FCE01855A9F4F0E947913CE01855A90
:103AF0009F4F0E94250CCE0101960E94250C4091FB
:103B0000050450910604609107047091080422E0B6
:103B1000CE0101960E942A0C68E573E0CE01855A19
:103B20009F4F0E948C0CBE016F5F7F4FCE01855A64
:103B30009F4F0E947913CE01855A9F4F0E94250CFA
:103B4000CE0101960E94250C6091210470912204FF
:103B50004AE0CE0101960E94590C68E673E0CE015E
:103B6000855A9F4F0E948C0CBE016F5F7F4FCE0124
:103B7000855A9F4F0E947913CE01855A9F4F0E940C
:103B8000250CCE0101960E94250C60911F047091B6
:103B900020044AE0CE0101960E94590C63E773E0CD
:103BA000CE01855A9F4F0E948C0CBE016F5F7F4FE4
:103BB000CE01855A9F4F0E947913CE01855A9F4F9F
:103BC0000E94250CCE0101960E94250C60911B04D9
:103BD00070911C044AE0CE0101960E94590C6FE7D7
:103BE00073E0CE01855A9F4F0E948C0CBE016F5F1F
:103BF0007F4FCE01855A9F4F0E947913CE01855A7F
:103C00009F4F0E94250CCE0101960E94250C6091C9
:103C1000190470911A044AE0CE0101960E94590CD1
:103C20006DE873E0CE01855A9F4F0E948C0CBE0157
:103C30006F5F7F4FCE01855A9F4F0E947913CE014F
:103C4000855A9F4F0E94250CCE0101960E94250C9B
:103C500060911704709118044AE0CE0101960E9409
:103C6000590C6CE973E0CE01855A9F4F0E948C0C71
:103C7000BE016F5F7F4FCE01855A9F4F0E9479131F
:103C8000CE01855A9F4F0E94250CCE0101960E94BD
:103C9000250C60911504709116044AE0CE0101963E
:103CA0000E94590C68EA73E0CE01855A9F4F0E942A
:103CB0008C0CBE016F5F7F4FCE01855A9F4F0E94D3
:103CC0007913CE01855A9F4F0E94250CCE01019693
:103CD0000E94250C809103049091040490930102AA
:103CE000809300020E9480140E94801460E080E0B3
:103CF0000E948F1484EB93E00E948B146FE876E0AF
:103D000087EA96E00E94EB0C61E085E00E948F1448
:103D100069E876E087EA96E00E94EB0C68EB7BE0CE
:103D200080E090E00E94640E0E94801460E080E0D9
:103D30000E948F1489EB93E00E948B1461E080E075
:103D40000E948F1480E090E00E94BF1468EB7BE03B
:103D500080E090E00E94640E0E94801460E080E0A9
:103D60000E948F1482E393E00E948B1461E080E054
:103D70000E948F1488E596E00E9480130E94EC1444
:103D80006FED87EA96E00E94E40C86EC93E00E94D7
:103D90008B1468EB7BE080E090E00E94640E0E9450
:103DA000801460E080E00E948F148DE393E00E9415
:103DB0008B1461E080E00E948F1488E596E00E94F9
:103DC0000D140E94EC1488EC93E00E948B1468EBB5
:103DD0007BE080E090E00E94640E0E94801460E02E
:103DE00080E00E948F148CE493E00E948B1461E0C9
:103DF00080E00E948F1485E496E00E9480130E9468
:103E0000EC146FED87EA96E00E94E40C86EC93E0F8
:103E10000E948B1468EB7BE080E090E00E94640ECF
:103E20000E94801460E080E00E948F1488E593E097
:103E30000E948B1461E080E00E948F1485E496E07C
:103E40000E940D140E94EC1488EC93E00E948B14E5
:103E500068EB7BE080E090E00E94640E0E9480149A
:103E600060E080E00E948F1488E693E00E948B144B
:103E700061E080E00E948F148091210490912204DF
:103E80000E94BF1468EB7BE080E090E00E94640E2B
:103E90000E94801460E080E00E948F1483E793E02A
:103EA0000E948B1461E080E00E948F1480911F04B7
:103EB000909120040E94BF1468EB7BE080E090E0CA
:103EC0000E94640E0E94801460E080E00E948F14C3
:103ED0008BEC93E00E948B1461E080E00E948F14D1
:103EE00080911D0490911E040E94BF1468EB7BE03A
:103EF00080E090E00E94640E0E94801460E080E008
:103F00000E948F148FE793E00E948B1461E080E0A1
:103F10000E948F1480911B0490911C040E94BF1476
:103F200068EB7BE080E090E00E94640E0E948014C9
:103F300060E080E00E948F148DE893E00E948B1473
:103F400061E080E00E948F148091190490911A041E
:103F50000E94BF1468EB7BE080E090E00E94640E5A
:103F60000E94801460E080E00E948F148CE993E04E
:103F70000E948B1461E080E00E948F1480911704EE
:103F8000909118040E94BF1468EB7BE080E090E001
:103F90000E94640E0E94801460E080E00E948F14F2
:103FA00088EA93E00E948B1461E080E00E948F1405
:103FB00080911504909116040E94BF1468EB7BE079
:103FC00080E090E00E94640E68E873E180E090E099
:103FD0000E94640E0E94C20981C861E087E20E94CB
:103FE000F90D1092220410922104DDC894E6998301
:103FF0008AE0C82ED12CDE01A55ABF4F7D0105E015
:1040000010E029E932E041E050E0BE016F5F7F4FF0
:104010008CE595E00E94B1118A30910538F4EBE50A
:10402000F0E0EC0FFD1FE80FF91F1082A7961FAEFE
:104030001EAEA797A9961FAE1EAEA997AB961FAE50
:104040001EAEAB974AE0BE016F5F7F4FA5D5BE01A4
:104050006F5F7F4FCE018B599F4F0E94C20B65E966
:1040600072E0CE018B599F4F0E94C20BFC018081F0
:104070009181892B69F469EA72E0CE018B599F4FD7
:104080000E94C20BDC018D919C91892BD9F414C044
:104090008091FF03909100048230910518F00697FB
:1040A0000E97B8F460E087E20E94F90D81E090E09D
:1040B0009093220480932104CE018B599F4F0E943C
:1040C000250C71C88091FF039091000405970B9710
:1040D00048F361E087E20E94F90D109222041092E9
:1040E0002104EACF20E030E040E752E4C501B4010A
:1040F000E9D787FF1CC020E030E040E752E4C70169
:10410000B601E0D787FF1CC061E083E30E94F90D90
:10411000109216041092150460E081E30E94F90DDC
:1041200081E090E090931804809317043FC020E052
:1041300030E040E752E4C501B401C4D787FF1BC09B
:1041400020E030E040E752E4C701B60170D2181613
:1041500094F461E083E30E94F90D1092160410922A
:10416000150461E081E30E94F90D10921804109289
:10417000170460E01CC020E030E048E452E4C501D0
:10418000B401A0D787FF1BC060E083E30E94F90D54
:1041900001E010E0109316040093150460E081E341
:1041A0000E94F90D109318040093170461E08DE24A
:1041B0000E94F90D10921C0410921B04A2C8A301C6
:1041C0009201C301B20137D281113DC020E030E03D
:1041D00042E852E4C301B2012AD21816A4F561E004
:1041E00083E30E94F90D109216041092150461E009
:1041F00081E30E94F90D109218041092170461E0F7
:104200008DE20E94F90D10921C0410921B0460E0D4
:104210008FE20E94F90D81E090E090931A04809360
:10422000190477C861E083E30E94F90D1092160427
:104230001092150461E081E30E94F90D10921804B8
:1042400010921704B3CF61E083E30E94F90D10923E
:1042500016041092150460E081E30E94F90D01E05C
:1042600010E0109318040093170460E08DE20E94A0
:10427000F90D10931C0400931B0460E08FE20E9470
:10428000F90D10931A040093190443C820E030E09C
:1042900040E752E4C701B60115D787FF0EC834CFF7
:1042A0008BE696E00E94250C81E796E00E94250CA3
:1042B00087E796E00E94250C8DE796E00E94250C8A
:1042C00083E896E00E94250C89E896E00E94250C80
:1042D0008FE896E00E94250C85E996E00E94250C67
:1042E0008BE996E00E94250C81EA96E00E94250C5D
:1042F00084EB96E00C94250CCF93EFEBF4E0138263
:10430000128248EE53E060E070E044835583668398
:10431000778382E492E09183808385EC90E09587B7
:10432000848784EC90E09787868780EC90E0918B7F
:10433000808B81EC90E0938B828B82EC90E0958B6C
:10434000848B86EC90E0978B868B118E128E138E69
:10435000148EACE5B5E0B093BE04A093BD041C92EE
:104360001696FC93EE93159717961C92179718962E
:104370001C9218971A96FC93EE931997E7E6F5E0CE
:1043800013821282448355836683778382E592E0A9
:10439000918380836BEF72E084EB96E00E948C0C3B
:1043A000E3E7F5E0C6E1C1831382E7EAF6E01382B2
:1043B000128282E792E09183808387E2848380E1A6
:1043C000818782E0828713866BEF72E081EA96E054
:1043D0000E948C0C6BEF72E08BE996E00E948C0CD3
:1043E0006BEF72E085E996E00E948C0C6BEF72E057
:1043F0008FE896E00E948C0C6BEF72E089E896E003
:104400000E948C0C6BEF72E083E896E00E948C0CAB
:104410006BEF72E08DE796E00E948C0C6BEF72E020
:1044200087E796E00E948C0C6BEF72E081E796E0E4
:104430000E948C0C6BEF72E08BE696E00E948C0C75
:10444000A8E5B6E087E315968C9315971696CC935E
:104450001697E9E2F2E0E4911796EC931797E3EEF2
:10446000F1E0E4911896EC93189740E85EE360E081
:1044700070E01D964D935D936D937C935097A5E4EA
:10448000B6E086E315968C9315971696CC931697FF
:10449000E8E2F2E0E4911796EC931797E2EEF1E090
:1044A000E4911896EC9318971D964D935D936D9338
:1044B0007C935097CF910895A1E21A2EAA1BBB1BA3
:1044C000FD010DC0AA1FBB1FEE1FFF1FA217B307E0
:1044D000E407F50720F0A21BB30BE40BF50B661FF6
:1044E000771F881F991F1A9469F7609570958095BA
:1044F00090959B01AC01BD01CF010895EE0FFF1F08
:10450000881F8BBF0790F691E02D19945058BB2758
:10451000AA270ED0B9C6AAD630F0AFD620F031F413
:104520009F3F11F41EF49FC60EF4E095E7FB95C67D
:10453000E92FBBD680F3BA17620773078407950784
:1045400018F071F49EF5D3C60EF4E0950B2EBA2F39
:10455000A02D0B01B90190010C01CA01A001112489
:10456000FF27591B99F0593F50F4503E68F11A1635
:10457000F040A22F232F342F4427585FF3CF4695C6
:1045800037952795A795F0405395C9F77EF41F16E8
:10459000BA0B620B730B840BBAF09150A1F0FF0FB2
:1045A000BB1F661F771F881FC2F70EC0BA0F621F9E
:1045B000731F841F48F4879577956795B795F7958E
:1045C0009E3F08F0B3CF9395880F08F09927EE0F20
:1045D00097958795089571D688F09F5790F0B92FD9
:1045E0009927B751A0F0D1F0660F771F881F991F48
:1045F0001AF0BA95C9F712C0B13081F078D6B1E09F
:10460000089575C6672F782F8827B85F39F0B93FAE
:10461000CCF3869577956795B395D9F73EF4909549
:104620008095709561957F4F8F4F9F4F08958BD5E3
:1046300008F48FEF089587D5880B990B0895CF93D1
:10464000DF938230910510F482E090E0E091BC06A7
:10465000F091BD0620E030E0C0E0D0E0309711F1ED
:104660004081518148175907C0F04817590761F434
:1046700082819381209719F09B838A832BC090932A
:10468000BD068093BC0626C02115310519F04217DE
:10469000530718F49A01BE01DF01EF010280F38194
:1046A000E02DDCCF2115310509F1281B390B243011
:1046B000310590F412968D919C91139761157105B7
:1046C00021F0FB019383828304C09093BD06809305
:1046D000BC06FD01329644C0FD01E20FF31F819339
:1046E0009193225031092D933C933AC02091BA0600
:1046F0003091BB06232B41F420910802309109022E
:104700003093BB062093BA0620910602309107022F
:104710002115310541F42DB73EB740910A02509161
:104720000B02241B350BE091BA06F091BB06E21791
:10473000F307A0F42E1B3F0B2817390778F0AC01C4
:104740004E5F5F4F2417350748F04E0F5F1F5093A1
:10475000BB064093BA068193919302C0E0E0F0E07B
:10476000CF01DF91CF9108950F931F93CF93DF93E4
:10477000009709F48CC0FC013297138212820091D9
:10478000BC061091BD060115110581F4208131810F
:10479000820F931F2091BA063091BB062817390764
:1047A00079F5F093BB06E093BA0671C0D80140E0FA
:1047B00050E0AE17BF0750F412962D913C9113971D
:1047C000AD012115310509F1D901F3CF9D01DA01C0
:1047D0003383228360817181860F971F821793072D
:1047E00069F4EC0128813981260F371F2E5F3F4F76
:1047F000318320838A819B8193838283452B29F493
:10480000F093BD06E093BC0642C01396FC93EE9372
:104810001297ED01499159919E01240F351FE2171E
:10482000F30771F480819181840F951F0296119690
:104830009C938E938281938113969C938E9312976F
:10484000E0E0F0E0D80112968D919C9113970097CB
:1048500019F0F8018C01F6CF8D919C9198012E5F93
:104860003F4F820F931F2091BA063091BB06281745
:10487000390769F4309729F41092BD061092BC06EE
:1048800002C0138212821093BB060093BA06DF9116
:10489000CF911F910F9108956F927F928F929F9267
:1048A000AF92BF92CF92DF92EF92FF920F931F933E
:1048B000CF93DF93EC01009781F4CB01DF91CF918F
:1048C0001F910F91FF90EF90DF90CF90BF90AF902E
:1048D0009F908F907F906F90B2CEFC01E60FF71FF4
:1048E0009C0122503109E217F30708F4A8C0D9014E
:1048F0000D911C91119706171707A8F005301105A7
:1049000008F49BC0C80104978617970708F495C060
:1049100002501109061B170B019311936D937C93A1
:10492000CF0122DF8AC05B01A01AB10A4C01800EC0
:10493000911EA091BC06B091BD0640E050E0E12C74
:10494000F12C109709F44AC0A815B905D1F56D905E
:104950007C901197630182E0C80ED11CCA14DB045D
:1049600080F1A3014A195B096A0182E0C80ED11CDB
:104970001296BC9012971396AC91B5E0CB16D10469
:1049800040F0B282A38351834083D9016D937C931D
:104990000AC00E5F1F4FC301800F911FF901918361
:1049A0008083EB2DFA2FE114F10431F0D701139637
:1049B000FC93EE93129741C0F093BD06E093BC06C2
:1049C0003CC08D919C9111974817590708F4AC0190
:1049D0007D0112960D90BC91A02DB3CF8091BA06A7
:1049E0009091BB0688159905E1F446175707C8F45E
:1049F0008091060290910702009741F48DB79EB70F
:104A000040910A0250910B02841B950BE817F9079D
:104A1000B0F4F093BB06E093BA06F90171836083AA
:104A20000CC0CB010CDE7C01009749F0A801BE014F
:104A30001BD0CE0199DEC70104C0CE0102C080E0C8
:104A400090E0DF91CF911F910F91FF90EF90DF9059
:104A5000CF90BF90AF909F908F907F906F90089570
:104A600081E090E0F8944AC4FB01DC0102C00190AF
:104A70000D9241505040D8F70895FB01DC010190A0
:104A80000D920020E1F70895FB0151915523A9F003
:104A9000BF01DC014D9145174111E1F759F4CD01FA
:104AA0000190002049F04D9140154111C9F3FB01DF
:104AB0004111EFCF81E090E001970895EF920F93BD
:104AC0001F93CF93DF93E80147FD02C034E001C09C
:104AD00034E1E42F440FFF0BF7FF03C0F195E1959C
:104AE000F109E32E022F2E2FAE016FD0CE01DF9100
:104AF000CF911F910F91EF9008951F93FC0199277B
:104B00008827BC01E89411911032E9F3193010F0B4
:104B10001E30C8F31B3249F01D3241F4689405C0C1
:104B200026D0610F711D811D911D119110531A30F6
:104B3000B8F33EF490958095709561957F4F8F4FB7
:104B40009F4F1F9108954532510518F4423008F0E7
:104B500004C0FB011082CB010895BB274A3031F419
:104B6000992322F4BDE2909581959F4F16C0592F4D
:104B7000482F372F262F660F771F881F991F660F24
:104B8000771F881F991F620F731F841F951F660F61
:104B9000771F881F991F0895BB27FB015527AA2758
:104BA000880F991FAA1FA41710F0A41B83955051BA
:104BB000B9F7A05DAA3308F0A95DA193009779F732
:104BC000B111B1931192CB016DC24F925F926F926E
:104BD0007F929F92AF92BF92CF92DF92EF92FF921D
:104BE0000F931F93CF93DF93CDB7DEB729970FB6FF
:104BF000F894DEBF0FBECDBF6A01122FB02E2BE39B
:104C0000201720F0FF24F394F00E02C0BCE3FB2E2B
:104C10000F2D27E0AE014F5F5F4F64D1AC0189815A
:104C2000982F9970913031F0E1FC06C0E0FE06C08B
:104C300090E205C09DE203C09BE201C090E0EE2D32
:104C4000E07183FF3CC0911102C083E001C084E0A9
:104C5000811718F4212F281B01C020E0E1110BC09F
:104C6000F601822F30E2882319F031938150FBCF77
:104C7000C20ED11C20E0992329F0D6019C93F601A5
:104C800031966F01C6010396E2FE0AC03EE4D601EA
:104C90003C9341E411964C93119712963C9306C0B5
:104CA0003EE6F601308341E641833283FC01322F38
:104CB00040E2332309F442C041933150FACF82FFDE
:104CC00044C0911102C083E001C084E0811718F450
:104CD000212F281B01C020E0E1110BC0F601822F1B
:104CE00030E2882319F031938150FBCFC20ED11CE2
:104CF00020E0992329F0D6019C93F60131966F01AB
:104D0000C6010396E2FE0BC039E4D6013C933EE4B3
:104D100011963C93119736E412963C9307C039E6FE
:104D2000F60130833EE6318336E63283FC01322FD2
:104D300040E2332319F041933150FBCFFC01E20FE5
:104D4000F11D10828EEF9FEFB7C0F1E0911101C00D
:104D5000F0E06F2F70E01416150624F49A012F5F0F
:104D60003F4F02C021E030E0260F371FBB2029F063
:104D70006B2D70E06F5F7F4F02C060E070E0260F28
:104D8000371F612F70E0261737071CF4121B212FE5
:104D900001C020E03E2D387159F4D601322F60E277
:104DA000332319F06D933150FBCFC20ED11C20E09C
:104DB000FF2331F0D6019C93B6016F5F7F4F6B01EB
:104DC000E1110BC0F601922F30E3992319F03193D2
:104DD0009150FBCFC20ED11C20E09F2D940F3A8141
:104DE000782F7071A72E84FF03C0313309F49150DE
:104DF000191624F4993018F098E001C091E0E42FDE
:104E0000852F57FF02C0E0E080E06E2F782FE0E0B2
:104E1000F0E0AEE29A2E3A01691A71082A01461AA8
:104E2000570A0B2D10E01195019511096F3F8FEF77
:104E3000780729F4D6019C92C60101966C014617A9
:104E4000570784F0661677066CF47F01E40CF51CB6
:104E5000A1E0B0E0AC0FBD1FEA0EFB1ED70111961A
:104E6000BC9002C090E3B92E615071093196C60121
:104E700001967C016017710724F0D601BC926C0189
:104E8000D5CF6417750741F4363320F4353321F458
:104E9000A11002C081E3B82EF601B082F701822F83
:104EA00090E2882319F091938150FBCFF701E20F34
:104EB000F11D108280E090E029960FB6F894DEBFD5
:104EC0000FBECDBFDF91CF911F910F91FF90EF905B
:104ED000DF90CF90BF90AF909F907F906F905F904A
:104EE0004F900895283008F027E03327DA01990F12
:104EF000311D87FD916000966105710539F43260BE
:104F00002E5F3D9330E32A95E1F708959F3F30F0FF
:104F100080387105610509F03C5F3C5F3D9391303D
:104F200008F08068911DDF93CF931F930F93FF923A
:104F3000EF92192F987F9695E92F96959695E90F00
:104F4000FF27EE56FD4F99273327EE24FF24A701B4
:104F5000E70105900894079428F4360FE71EF81E21
:104F6000491F511D660F771F881F991F0694A1F7CF
:104F70000590079428F4E70EF81E491F561FC11D1F
:104F8000770F881F991F661F0694A1F70590079455
:104F900028F4F80E491F561FC71FD11D880F991FEF
:104FA000661F771F0694A1F70590079420F4490F18
:104FB000561FC71FD81F990F661F771F881F06949B
:104FC000A9F784911095177041F0D695C79557951C
:104FD0004795F794E7941A95C1F7E8E3F2E06894EF
:104FE0001590159135916591959105907FE2739596
:104FF000E118F10A430B560BC90BD009C0F7E10CBD
:10500000F11E431F561FC91FD01D7EF4703311F4CB
:105010008A95E6CFE894015030F0080F0AF4002793
:10502000021708F4202F2395022F7A3328F079E312
:105030007D932A95E9F710C07D932A9589F6069409
:1050400097956795379517951794E118F10A430BD3
:10505000560BC90BD00998F023957E9173957A333E
:1050600008F070E37C932013B8F77E9170617D9314
:1050700030F0839571E37D9370E32A95E1F7112475
:10508000EF90FF900F911F91CF91DF91992787FDAE
:10509000909508959111DEC0803219F089508550A5
:1050A000D0F70895DC01FC01672F71917723E1F7B8
:1050B000329704C07C916D9370836291AE17BF07E5
:1050C000C8F3089540D008F481E00895E89409C039
:1050D00097FB3EF490958095709561957F4F8F4F2B
:1050E0009F4F9923A9F0F92F96E9BB279395F69541
:1050F000879577956795B795F111F8CFFAF4BB0FBF
:1051000011F460FF1BC06F5F7F4F8F4F9F4F16C022
:10511000882311F096E911C0772321F09EE8872FAC
:10512000762F05C0662371F096E8862F70E060E068
:105130002AF09A95660F771F881FDAF7880F9695E1
:10514000879597F90895990F0008550FAA0BE0E885
:10515000FEEF16161706E807F907C0F01216130639
:10516000E407F50798F0621B730B840B950B39F479
:105170000A2661F0232B242B252B21F408950A26DF
:1051800009F4A140A6958FEF811D811D08950BD0D4
:105190007BC06CD028F071D018F0952309F05DC069
:1051A00062C01124A5C081D0A0F3959FD1F3950FC3
:1051B00050E0551F629FF001729FBB27F00DB11D9B
:1051C000639FAA27F00DB11DAA1F649F6627B00D2B
:1051D000A11D661F829F2227B00DA11D621F739F14
:1051E000B00DA11D621F839FA00D611D221F749F22
:1051F0003327A00D611D231F849F600D211D822F69
:10520000762F6A2F11249F5750408AF0E1F08823AF
:105210004AF0EE0FFF1FBB1F661F771F881F9150BC
:105220005040A9F79E3F510570F017C061C05F3F25
:10523000ECF3983EDCF3869577956795B795F795EF
:10524000E7959F5FC1F7FE2B880F911D9695879577
:1052500097F9089599278827089597F99F6780E817
:1052600070E060E008959FEF80EC089500240A94B8
:105270001616170618060906089500240A94121631
:105280001306140605060895092E0394000C11F464
:10529000882352F0BB0F40F4BF2B11F460FF04C011
:1052A0006F5F7F4F8F4F9F4F089557FD9058440F6A
:1052B000551F59F05F3F71F04795880F97FB991F75
:1052C00061F09F3F79F08795089512161306140632
:1052D000551FF2CF4695F1DF08C0161617061806BF
:1052E000991FF1CF86957105610508940895E8949A
:1052F000BB2766277727CB0197F9089511E0CAE904
:10530000D1E000E005C0802FFE01F8D82196011DF4
:0E531000CB39D10780E00807B1F7F894FFCF42
:10531E00FFFFFFFF01000000BE06800058585858DE
:10532E00585858313030000000007B0AD80837102A
:10533E0020100E101F0A00000000CD019902DC0A99
:10534E00F70AE50A200A000040001400540000008D
:10535E0000005B09D808250903091709A1090000F7
:10536E0000006A023B0233022402160215020000FC
:10537E000000210AD808210A210A210A210A000068
:10538E0000009804D80800000000210AD808202048
:10539E0020536F6C6172200020477265656E686FD6
:1053AE007573652000566567004C69676874006CFC
:1053BE00617374636865636B00426C6F6F6D002F71
:1053CE006D6E742F736461312F61726475696E6FC7
:1053DE002F7777772F6A6F6E6573477265656E48A4
:1053EE006F7573652F646174612F006C73006D6B44
:1053FE00646972002D70002C00636C696D617465B8
:10540E00446174612E637376000D0A0073756E44E9
:10541E006174612E637376007261696E44617461AA
:10542E002E6373760077696E64446174612E6373C4
:10543E007600746F74616C5F646179730079656175
:10544E007200696E7369646554656D7000696E7380
:10545E0069646548756D6964697479006F757473F4
:10546E0069646554656D70006F7574736964654821
:10547E00756D69646974790073756E4D4853746106
:10548E0074650076616C766531537461746500697C
:10549E006E6C657446616E5374617465006F7574DD
:1054AE006C657446616E53746174650067656F4612
:1054BE00616E5374617465006865617465725374CE
:1054CE006174650044543A200044617920696E206D
:1054DE004379636C6500460020250076616C766525
:1054EE003253746174650064617465002B25442D1C
:1054FE002554003A00FE0044006E616E00696E662F
:08550E00006F7666002E00001C
:00000001FF
